:020000040800F2
:10000000E89301209D0100081B1C00083B19000813
:10001000191C0008250A00083B2200080000000007
:10002000000000000000000000000000531F000856
:100030009B140008000000009D1C000859200008C7
:10004000B7010008B7010008B7010008B7010008B0
:10005000B7010008B70100089915000881160008CB
:10006000B7010008B7010008B7010008B701000890
:10007000B7010008B7010008B7010008B701000880
:10008000B7010008E5110008B7010008B701000832
:10009000B7010008B7010008B7010008A117000860
:1000A000B7010008B7010008B7010008B701000850
:1000B000AD200008B7010008B7010008B70100082B
:1000C000B7010008B7010008B7010008B701000830
:1000D000B7010008B7010008B7010008B701000820
:1000E000B7010008B7010008B7010008B701000810
:1000F000B7010008B7010008B7010008E9110008BE
:10010000B7010008B7010008B70100086D1E00081C
:10011000B7010008B7010008B7010008B7010008DF
:10012000B7010008B7010008B7010008B7010008CF
:10013000B7010008B7010008B7010008B7010008BF
:10014000B7010008B7010008B7010008B7010008AF
:10015000B7010008B7010008B7010008B70100089F
:10016000B7010008B7010008B7010008B70100088F
:10017000B7010008B701000865110008B7010008C1
:10018000B7010008B7010008DFF80CD000F0D8FA7A
:100190000048004719410008E893012006488047BD
:1001A00006480047FEE7FEE7FEE7FEE7FEE7FEE75C
:1001B000FEE7FEE7FEE7FEE75D2000088901000894
:1001C00040EA01039B0703D009E008C9121F08C0D9
:1001D000042AFAD203E011F8013B00F8013B521E59
:1001E000F9D27047D2B201E000F8012B491EFBD2D0
:1001F00070470022F6E710B513460A460446194632
:10020000FFF7F0FF204610BD10B5044604E00B7860
:1002100000F8013B03B1491C521EF8D2204610BD24
:100220002DE9FE4F804681EA0300C00F0C46009086
:1002300021F0004123F00045B8EB0200A94105D2AE
:100240004046214690461C460B46024623F000409D
:10025000104304D14046214603B0BDE8F08F270D7E
:10026000C7F30A00C3F30A510290401A01904028D4
:1002700066DAC3F3130040F4801B0098924620B165
:100280000023D2EB030A63EB0B0B01985946C0F134
:100290004002504600F0ACF906460D46504659461D
:1002A000019A00F0C4F910EB08006141002487EACC
:1002B000115284EAE7731A433BD0009A3AB3019A89
:1002C000012A4FEA075210DC001B61EB02014FF0DC
:1002D000004202EA0752CDE90042001C41F58011BC
:1002E00032462B4600F0C2F9B6E7001B61EB020173
:1002F000001C41F5801300185B412018A2F500177F
:1003000047EB030140EAD570B6196D4111E06D0865
:100310004FEA360645EAC0754FEA0752001B61EB0B
:100320000201001C41F5801149084FEA3000001914
:10033000514132462B4603B0BDE8F04F00F089B979
:100340000098012240000023D0EB020263EBE0732F
:10035000009821464FEAE074B8EB000061EB04011D
:10036000E9E783F000435BE781F0004158E72DE9BE
:10037000FE4F81EA030404F0004421F000410094A0
:100380004FF0000B23F0004350EA010402D052EA80
:10039000030404D10020014603B0BDE8F08FC3F38D
:1003A0000A54C1F30A552C44A4F2F3340194A0FB7F
:1003B0000254C1F3130141F48011C3F3130343F456
:1003C000801301FB024400FB034E840A970A44EAAF
:1003D000815447EA8357A4FB076802958D0A05FB01
:1003E00007854FEA932C04FB0C542705029D4FEA26
:1003F000065847EA1637B5EB08056EEB070C870E73
:10040000920E47EA811742EA8312A7FB0201B6EB7C
:100410000B0164EB00042B0D43EA0C335E1844EB34
:100420001C50DA465146E7FB0201C5F313044FEABC
:100430000B3343EA14534FEA0432019C43EA0603A8
:10044000A4F10C040294009CCDE900B400F00EF974
:10045000A2E72DE9F04D81EA030404F0004B21F0FE
:10046000004514464FF0000A23F0004150EA05020F
:1004700020D054EA01021DD0C5F30A570246C5F345
:100480001303C1F31300C1F30A5640F4801543F47B
:100490008013A7EB0608101BD64608F2FD3873EB55
:1004A000050002D308F1010801E092185B41B8F1A0
:1004B000000F03DA00200146BDE8F08D00204FF464
:1004C0008011064684460EE0171B73EB050705D323
:1004D000121B63EB050306434CEA010C49084FEA83
:1004E000300092185B4150EA0107EDD152EA030057
:1004F00012D082EA040083EA0501084303D10022F6
:100500004FF0004308E0101BAB4102D20122002350
:1005100002E06FF0010253101AEB06004CEB085199
:1005200010EB0A0041EB0B01BDE8F04D00F091B873
:100530000EB5C10F80EAE0700844CA07002140F2FE
:1005400033438DE80E000A460B4600F08FF803B0E7
:1005500000BD0EB540F2334102910021CDE90011FA
:100560000A460B4600F082F803B000BDC1F30A5200
:1005700010B5C1F3130140F2FF3341F480119A42E8
:1005800001DA002010BD40F233439A42A2F2334216
:1005900003DC524200F03BF810BD904010BD00005B
:1005A00030B5002904DB4FF00044404264EB010108
:1005B000002B04DB4FF00044524264EB03038B42F8
:1005C00008BF824230BD000030B5002904DB4FF087
:1005D0000044404264EB0101002B04DB4FF0004477
:1005E000524264EB0303994208BF904230BD0000C1
:1005F000202A04DB203A00FA02F1002070479140E3
:10060000C2F1200320FA03F3194390407047202AD7
:1006100004DB203A21FA02F00021704721FA02F3AC
:10062000D040C2F120029140084319467047202A69
:1006300006DBCB17203A41FA02F043EAE07306E00A
:1006400041FA02F3D040C2F120029140084319461A
:10065000704710B5002B08DA401C41F100019218D8
:100660005B411A4301D120F0010010BD2DE9F04D8E
:1006700092469B4611B1B1FA81F202E0B0FA80F2E3
:1006800020329046FFF7B4FF04460F4640EA0A00C6
:1006900041EA0B0153465A46084303D120463946E6
:1006A000BDE8F08D114653EA010015D0C8F14002B3
:1006B0005046FFF7ACFF05460E46504659464246A7
:1006C000FFF796FF084301D0012000E0002005431A
:1006D00046EAE0762C4337430A984FEA4453A0EBAE
:1006E00008004FEAD4240A304FF0000244EA47548D
:1006F0004FEAD72502D500200146D1E701051019A0
:100700006941DDE9084500196941BDE8F04DA0E700
:1007100070B521F0004303430CD0C1F30A55002407
:10072000D5EB040564EB0403D617AD1AB34102DB25
:100730000020014670BD201841EB025170BD000041
:10074000064C074D06E0E06840F0010394E807001E
:1007500098471034AC42F6D3FFF71AFD70510008E9
:10076000905100082DE9F04D00231A461B1A8A41CA
:1007700003DB00200146BDE8F08DC1F30A52C1F34E
:10078000130141F480154FF0000BD10702D100187E
:100790006D41521E0027044640F2FF11384601EB1E
:1007A000620A3E468046024600204FF48011FFF761
:1007B0002EFFC2197141BB1846EB0100B4EB030CCC
:1007C00075EB000C04D3E41A65EB000517460E46E2
:1007D000241908F101006D4180463428E3DDF91940
:1007E00046EB0600091BA84103D24FF0FF32134627
:1007F00001E0002213461BEB070046EB0A51BDE85F
:10080000F04DFFF726BF000070B5244CA16AA06927
:1008100000F0CCFD002840D0A06880B3A06900F0B3
:10082000B6FD0028FAD1A16AA06900F0DFFC1C49DE
:10083000E06B88604FF48036A068751EB04200D32C
:10084000284608611649A06900F0E4FD0121A0696D
:1008500000F0E2FCA068B04201D2014600E0294667
:10086000E26B02EB4101E163B04200D20546401B5E
:10087000A060A069BDE87040012100F0CDBC00215E
:10088000A06900F0C9FCA16AA06900F0AFFCE06BB0
:10089000BDE87040002100F079BE70BD4C00002022
:1008A000AC8D0120F8B52F4D2869002401260128C0
:1008B00039D10121686901F035FA0021A86900F0F9
:1008C000ABFCA86900F0B4FC2748296A0160E9691B
:1008D000416084604021C1604FF6FE710161446156
:1008E000B10281614900C16189000162446209016C
:1008F0008162C4620463446384630146A86900F0B2
:1009000089FD01221021A86900F06AFD95F82400F4
:100910008DF800008DF801408DF802408DF80360DD
:10092000684601F087F92969104D012913D000F0BC
:10093000ADFB01227121284601F0FBFA33208DF82E
:1009400000008DF801408DF802408DF80360684684
:1009500001F070F9F8BD01220221284601F0A6FA43
:10096000F8BD00004C000020AC8D0120003C004090
:1009700070B5124C124B002814D01D4601220221E2
:10098000284601F093FA0121A06900F045FC0C49CA
:100990001C310988490510D42846BDE87040012162
:1009A00001F0C2B800220221184601F07FFAA069C6
:1009B000BDE87040002100F02FBC70BD4C0000204D
:1009C000003C004070B50246134C25692046134B8D
:1009D0008069012D13D09A601961194600F01AFD43
:1009E0000121A06900F018FC0D480088400511D4D1
:1009F000BDE870400A4801211C3801F095B89A60A2
:100A000049081961054900F005FD0121A06900F0C0
:100A100003FCE9E770BD00004C000020AC8D012014
:100A20001C3C0040FEE7000030B589B004460121BF
:100A3000C80301F093F9154D284601F041FA0794D7
:100A40000024ADF81640ADF81840ADF82040681508
:100A5000ADF81400ADF81A0005A9284601F070F8A9
:100A60000B48006902280ED10121000701F076F938
:100A700001940294049401A9002000F02FFB0121AD
:100A8000002000F0F3FA09B030BD0000003C004047
:100A90004C0000201FB50121480501F05FF90F4C03
:100AA000204600F073FF0021ADF804104BF6FF71F3
:100AB000ADF806103321ADF808102115ADF80A1075
:100AC0000901ADF80C10064900910121204600F003
:100AD00050FF6946204600F0BDFF1FBD0054004096
:100AE000A08601002DE9FC410121082001F01AF93E
:100AF0001027009701268DF8046002248DF8054028
:100B000000258DF806508DF807506946374800F0EB
:100B1000B5FE0121072001F005F94FF44070009067
:100B20008DF804408DF805408DF806608DF807506B
:100B30002F4E6946304600F0A1FE042208213046BF
:100B400000F0DAFE04220921304600F0D5FE4FF411
:100B5000A05000908DF804408DF805408DF80650A7
:100B60008DF80750234E6946304600F087FEDFF8C7
:100B7000888006220F21404600F0BEFE06220A2190
:100B8000304600F0B9FE1D48006902280BD0A003D2
:100B900000906946404600F071FE06220C21304666
:100BA00000F0AAFE0DE00121084601F0BBF8009715
:100BB00003208DF804008DF807506946404600F088
:100BC0005DFE802000908DF804408DF805408DF882
:100BD00006508DF807506946304600F04FFE062259
:100BE0000721304600F088FEBDE8FC81000C024081
:100BF0000004024000080240000002404C000020B7
:100C00002DE9F0410F461546FFF76CFF00F066F93D
:100C1000FFF740FF0121022000F096F90446AF21C2
:100C2000042000F091F904442B4EAF203070812154
:100C3000052000F089F904440421062000F084F91D
:100C40000444384600F062F93069022818D10121C5
:100C5000082000F079F904440121092000F074F91A
:100C60000444C0210E2000F06FF904440021142038
:100C700000F06AF904440021152000F065F90444ED
:100C80009E21022000F060F9044400210A2000F0B7
:100C90005BF904443069022804D004210E2000F0DE
:100CA00053F904440021272000F04EF904440F2199
:100CB0001F2000F049F904440A211A2000F044F9E9
:100CC00004440A211B2000F03FF904442846FFF7A2
:100CD000ABFE2046BDE8F0814C000020012804D086
:100CE00004480178042000F02FB9FF21042000F00F
:100CF0002BB900004C00002010B500280FD00020B8
:100D0000FFF7ECFF04460B480178042000F01CF9C3
:100D100004449E21022000F017F9204410BD012058
:100D2000FFF7DCFF04460121022000F00DF920440A
:100D300010BD00004C0000202DE9F0470746614C33
:100D40004FF49610E0604FF40035DFF87C8103E04B
:100D5000E168481EE06071B12946404600F060FE3F
:100D60000028F5D10121404600F042FE4FF48055A5
:100D7000E560564E07E0BDE8F04700F0C3B8E16813
:100D8000481EE06079B13146404600F0E3FD00289E
:100D9000F5D0C14600229421484600F0BAFEE56035
:100DA000DFF82C8107E0BDE8F04700F0ABB8E16860
:100DB000481EE06069B14146484600F0CBFD00287E
:100DC000F5D0C8463946404600F0ACFEE560414FDC
:100DD00007E0BDE8F04700F095B8E168481EE06024
:100DE00059B13946404600F01BFE0028F5D00121DC
:100DF000404600F0FDFDE56007E0BDE8F04700F08B
:100E000081B8E268501EE06072B13146404600F0A1
:100E1000A1FD0028F5D001229421404600F079FE82
:100E2000E5602C4EB61E07E0BDE8F04700F06AB85A
:100E3000E268501EE060A2B13146404600F0F0FD8D
:100E40000028F5D00021404600F078FD1E491831F9
:100E500008880121404600F0D7FDE5601D4E3C3674
:100E600009E0BDE8F04700F04DB8E2681300A2F1D8
:100E70000102E2600BD03146404600F0D1FD00286F
:100E8000F3D0404600F042FE0646E56007E0BDE8CC
:100E9000F04700F037B8E1684A1EE26071B1B8F877
:100EA00000008005F7D40121404600F047FD0A49C3
:100EB000404600F05BFD3046BDE8F087BDE8F047F6
:100EC00000F020B84C000020005400400100030056
:100ED00082000700040000100004001010B5084C48
:100EE00000221021204600F022FD44F6FF7000F0A1
:100EF000D5FA20460122BDE81040102100F017BDB0
:100F0000000C0240062003F0EDF8FEE770B5E6287D
:100F10000CD9A0F1E704E1B2202000F015F8054655
:100F2000E1B2212000F010F8284470BD00F119044E
:100F3000E1B2202000F008F80546E1B2212000F0DF
:100F400003F8284470BD00002DE9F04706460D4621
:100F5000414C4FF49617E7604FF40038DFF8FCA0DF
:100F600003E0E168481EE06081B14146504600F070
:100F700057FD0028F5D10121504600F039FD4FF40E
:100F80008058C4F80C80DFF8D89007E0BDE8F0473F
:100F9000FFF7B8BFE168481EE06079B149465046A6
:100FA00000F0D8FC0028F5D000229421504600F033
:100FB000B0FDC4F80C80DFF8AC9007E0BDE8F04766
:100FC000FFF7A0BFE168481EE06081B14946504686
:100FD00000F0C0FC0028F5D03146504600F0A2FDDC
:100FE000C4F80C80DFF87C80A8F1020807E0BDE8B7
:100FF000F047FFF787BFE168481EE06061B14146F6
:10100000504600F0A7FC0028F5D02946504600F0D5
:1010100089FDE760144F0BE0BDE8F047FFF772BFB2
:10102000E1680800A1F10101E16001D1FFF76AFF69
:101030003946504600F0F4FC0028F1D0012150461A
:1010400000F0E2FC3046FFF777FEA84202D0012014
:10105000BDE8F0870020FBE74C0000200054004072
:101060000100030082000700040000100122064B6B
:101070008240002903D01868104318607047186830
:1010800090431860704700000074004010B586B0AF
:101090000121104800F046FE0121480700F05EFEE5
:1010A0001020009003208DF8040000248DF80740E4
:1010B0006946094800F0E2FB02940394059402A9F2
:1010C000002000F00BF801210020FFF7CFFF06B051
:1010D00010BD0000010020000000024030B5084CA7
:1010E000236840F6FE7282409343D1E900252A43EB
:1010F000D1E902510D432A4382401A43226030BD98
:101100000074004008B5034A10440830009000986D
:10111000016008BD007400400649002804D008683A
:1011200040F0010008607047086820F00100086086
:1011300070470000000005500149486170470000F9
:10114000000005500649002804D0086840F480409B
:1011500008607047086820F480400860704700000D
:101160000000055010B5074800698007002807DA1D
:10117000062002F0A1FFBDE810400220FFF7DCBF0F
:1011800010BD000000000550064A002903D0D168B8
:101190000143D1607047D168C04380B20140D16043
:1011A000704700000000055030B50D490A6844F250
:1011B00001039A430A600A6840F6F2739A4303886F
:1011C0004488C588234384882C43234304892343CC
:1011D000448980892343034313430B6030BD0000DF
:1011E00000000550FFF710BBFFF70EBB074A904207
:1011F00001D2074801E005481038064A8B0001EA91
:10120000020101D5C16070478160704710640240DF
:10121000006002407D0F7D0F002904D0016841F07D
:10122000010101607047016821F001010160704710
:101230002DE9F043016821F0010101600021016006
:1012400041608160C1600161212141613E493E4AA6
:1012500010394FF03D08904203D1C1F80880BDE835
:10126000F083394A4FF474651832904201D18D6091
:10127000F5E7354A4FF474163032904201D18E6052
:10128000EDE7314A4FF074674832904201D18F60E8
:10129000E5E72D4B2D4A6033984201D1CA60DEE765
:1012A000294C2B4B7834A04201D1CB60D7E7DFF833
:1012B00098C0284C0CF1900C604501D1CC60CEE771
:1012C000DFF884904FF03D5C09F1A809484502D150
:1012D000C1F80CC0C3E72049DFF87C9008394845C5
:1012E00002D1C1F80080BAE7DFF86C8008F1180875
:1012F000404501D10D60B2E7174D3035A84201D10C
:101300000E60ACE7144D4835A84201D10F60A6E746
:10131000114D11496035091FA84201D10A609EE7AD
:101320000D4A7832904201D10B6098E70A4A903218
:10133000904201D10C6092E7074AA83290428ED1C8
:10134000C1F800C08BE70000106002403D000020A3
:10135000400F002000003D2010640240002904D00E
:10136000016841F4802101607047016821F4802107
:1013700001607047002A04D0026842F40022026033
:1013800003E0026822F40022026001617047014616
:1013900000200968C90700D00120704701460020DD
:1013A00009680903002900DA01207047024600207D
:1013B000084B9A4201D2084A01E0064A103A8B00D3
:1013C00001D5526800E01268044B1A400A4200D06E
:1013D0000120704710640240006002407D0F7D0FC5
:1013E0000B06002B09DA22B1436943F08003436105
:1013F00003E0436923F080034361802905D001F0B5
:101400001E011AB102680A430260704702688A43EB
:101410000260704730B50368124A1340CC680A680E
:101420002243D1E905452C432243CC6922430C6A6F
:1014300022434C6A22438C6A22434C6B22438C6BBE
:1014400022431A430260426922F00703D1E90B24C8
:1014500022431A4342610A6942604A68826089688D
:10146000C16030BD3F801CF0002A01D0016170478F
:10147000C160704741607047002101604160816038
:10148000C160016141618161C1610162416281624A
:10149000C1620163416381637047704701B502E037
:1014A0000098401E009000980028F9D108BD002047
:1014B000704710B5642901D9642105E0C1EB012111
:1014C0006423B1FBF3F1C9B2FFF79AFB08B1012025
:1014D00010BDFFF7E7F9002010BD10B50446204607
:1014E000FFF70AFC08B1012010BD00212046FFF7DC
:1014F0003FFA002010BD000010B51B4908610C69BF
:1015000000224FF40013012C14D0022811D14B619A
:10151000164888611648C8610A6211204862154859
:1015200088621548C862154808631548486315481D
:10153000886310BD4B610D48183088611248C8613E
:101540000A622F2048624FF0205088624FF01050FE
:10155000C8624FF0015008634FF0085048634FF0E5
:101560000450886310BD00004C000020A0600240C1
:101570000C7400400000202000001020000001201A
:1015800000000820000004200C3C004060210148BD
:10159000FFF718BA7C50000870B5012000F016F96A
:1015A00034480068C0072FD133490868000C04D0C4
:1015B000086880B20860086808602E4804220A3073
:1015C0000280002000BF401C0628FBDB086980B2B7
:1015D000000A284908310A80284C00250126217B71
:1015E000052911D2DFE801F0032A3A3D42003328F1
:1015F0000BD0512813D0532815D0442818D0452893
:1016000019D04D2800D1227370BD02F05BFEA67088
:1016100002F09CFEBDE87040082002F04DBDBDE820
:10162000704002F04FBE46F208306082267370BDF3
:101630000320207370BD0220207370BDE169002972
:10164000FBD0628A521E628201F8010BE161608A5E
:101650000028F2D1E5616673257370BD6070257353
:1016600070BDC0B202F0C8FE257370BDE070257376
:1016700070BD000010040240001002401400002061
:1016800070B5022000F0A2F841480068800776D4C7
:101690004049088A00BBC87A022210B101282BD029
:1016A00030E0087A012809D0887901280ED0C8795D
:1016B000012812D04879012817D023E00520C872EC
:1016C000344809308861887A08821BE00420C87297
:1016D000314888611920088214E00320C8722E481E
:1016E00019308861C92008820CE00120C87229489D
:1016F0000E3088610A8205E0CA724869886146F244
:10170000083008820A8A4AB32448036845F25554CF
:10171000B4EB134F06D003689BB203600368240444
:10172000234303604FF47F4343838B691C78240277
:10173000174E1025083635800483002000BF401C5A
:101740000228FBDB12480A3005805B1C8B61521EAD
:101750000A82002000BF401C0428FBDB088A002806
:101760000DD1C87A0022022807D003280BD0042804
:1017700006D0052803D108E001E0CA724A7170BDA5
:10178000CA728A7170BDCA72CA71CA720A7270BD99
:101790001004024014000020C88C012000100240F8
:1017A00010B5202000F020F800280CD0202000F0F8
:1017B0000DF82021044800F0AFF8002803D1BDE85F
:1017C000104002F07FBD10BD0004024001490860D6
:1017D00070470000143C014002490A6802430A6055
:1017E00070470000103C014001460020054A126885
:1017F0000A40044B14331B680B4202D0002A00D06D
:1018000001207047003C014030B51B4A83790168D4
:10181000002B2AD013688B431360111D0B680468DA
:10182000A3430B60017911440B68046823430B60E8
:10183000114C08342168036899432160231D1968FD
:101840000568A94319604179102905D011440A6837
:10185000006802430A6030BD2168026811432160BC
:10186000196800680143196030BD007910440268AE
:101870008A43026030BD0000003C01402DE9F04188
:10188000002201274FF0030C07FA02F50B682B40EA
:10189000AB422CD1066853000CFA03F4A643066051
:1018A0000E79D0F800809E4046EA080606600E7960
:1018B000012E01D0022E12D18668A64386604E7991
:1018C000D0F808809E4046EA080686604668AE4327
:1018D000466045688E799640B6B235434560C56826
:1018E000A543C560CC799C40C3681C43C460521CAE
:1018F000102AC9D3BDE8F08110B54B07DB0E9A4022
:10190000C90800EB8100016A0F249C40A1430162D9
:10191000016A1143016210BD0246002012690A42A9
:1019200000D0012070474183704701837047002A2F
:1019300001D00183704741837047FEE7002904D03E
:10194000018841F4806101807047018821F4806141
:1019500001807047034600209A8A1B8B1B041A43A0
:1019600022F07F42914300D101207047C943818218
:101970007047002904D0018841F0010101807047BF
:10198000018821F0010101807047000010B5154960
:1019900088420AD101214C05204600F0EDF920468D
:1019A000BDE81040002100F0E7B90F4988420AD194
:1019B00001218C05204600F0DFF92046BDE81040EB
:1019C000002100F0D9B9094988420AD10121CC058A
:1019D000204600F0D1F92046BDE81040002100F07B
:1019E000CBB910BD0054004000580040005C0040DE
:1019F000002904D0018841F480710180704701887A
:101A000021F4807101807047002904D0018841F4DD
:101A1000007101807047018821F4007101807047D6
:101A20000CB50246002000920A0F019221F07F417E
:101A3000019A002A03D0009A1432009203E0090CA4
:101A4000009A18320092009A12680A4200D00120CF
:101A50000CBD00007FB504460D46A08820F03F066F
:101A6000684600F0B3F902982649B0FBF1F189B25B
:101A70000E43A680228822F001022280224B2A688F
:101A80009A4209D85200B0FBF2F080B2042800D28A
:101A90000420491C218422E0EB88A3F53F46FF3E49
:101AA00005D102EB4202B0FBF2F080B208E002EB9B
:101AB000C20303EB0212B0FBF2F080B240F48040AC
:101AC000020501D140F0010040F400404FF496724D
:101AD00051434FF47A72B1FBF2F1491C2184A08387
:101AE000208840F00100208020884FF6F531084022
:101AF000A9886A89114301432180A889298908435B
:101B000020817FBD40420F00A0860100008AC0B244
:101B10007047002A02D041F0010101E001F0FE010E
:101B20000182704701827047002904D0818B41F403
:101B3000806181837047818B21F48061818370474C
:101B4000F0B5022200230124858B4FF24006354078
:101B5000858302250584858B8E68022E38D08A887D
:101B600002B102242A4A13681B0203D5136823F426
:101B700000031360264A7C321368C3F3881312688B
:101B8000C2F30276224A121F126802F03F02214F6E
:101B9000B7FBF2F25A43B2FBF6F2CB88B3F5007F03
:101BA0002BD06301B2FBF3F202EB82028B6852008E
:101BB000B2FBF3F2521D92B20A23B2FBF3F202F02F
:101BC0000103D21AC2F34F024FF6FF7404EA032353
:101BD000941EFE2C01D302220023CC881A43144306
:101BE00004840A884B881A438B8889890B431A43DB
:101BF0002A4342F400618183F0BD120A02EB8202A3
:101C00008B685200B2FBF3F2521D92B2D4E700008F
:101C10000838024000127A00FEE7704700F01F0209
:101C20000121914040094FF0E02202EB8000C0F812
:101C300000117047F0B50F23C278012601784FF0EC
:101C4000E027002A1CD0134A126802F4E062C2F5B1
:101C5000E062C2F30722C2F10404D3404578A540F4
:101C600082781A402A4312010B4BCA54007800F0C4
:101C70001F018E40400907EB8000C0F80061F0BDF5
:101C800001F01F008640480907EB8000C0F8806122
:101C9000F0BD00000CED00E000E400E07047000043
:101CA00010B50120FFF728FC4BF680323C210320C1
:101CB000FFF7FFFB60210448FEF784FEBDE81040FB
:101CC0000120FFF70ABC00007C50000810B5044654
:101CD0000121134A002CB2F9000007DC844205D030
:101CE00000211E20FFF730F9002010BD844201D1F1
:101CF000002010BD14800F2C01DD0F2000E02046D5
:101D000041EA0010C1B21C20FFF71EF903211D207B
:101D1000FFF71AF9C0211E20FFF716F9E0B210BD37
:101D200048000020054A002903D0116801431160D2
:101D300070471168814311607047000030380240DD
:101D4000054A002903D011680143116070471168EA
:101D5000814311607047000034380240054A002971
:101D600003D011680143116070471168814311600D
:101D70007047000040380240054A002903D011682E
:101D80000143116070471168814311607047000082
:101D900020380240054A002903D011680143116030
:101DA0007047116881431160704700004438024059
:101DB000054A002903D0116801431160704711687A
:101DC00081431160704700002438024070B5244BF5
:101DD000196801F00C01234C00291ED0661004295B
:101DE0001DD008291DD00460196801F0F00109090F
:101DF0001D4A545C0168E14041601C6804F4E054F1
:101E0000A40A145D21FA04F484601B6803F460439F
:101E10005B0BD25CD140C16070BD0460E4E706603A
:101E2000E2E70F4A121F1168C1F38055116801F0F3
:101E30003F0135B1B6FBF1F11468C4F38814614376
:101E400005E0B4FBF1F11468C4F38814614312682F
:101E5000C2F30142521C5200B1FBF2F10160C3E730
:101E6000083802400024F4008C00002010B50D4C0E
:101E70000221204600F056F8002811D00A480069D7
:101E8000022805D1FFF713FB01460420FFF73AF9BA
:101E9000FFF70DFB01462046BDE8104000F057B8A3
:101EA00010BD0000003C00404C000020002A03D080
:101EB00082880A438280704782888A438280704782
:101EC00010B5154988420AD1841401212046FFF734
:101ED0006FFF2046BDE810400021FFF769BF0F49A2
:101EE00088420AD1041401212046FFF745FF20460D
:101EF000BDE810400021FFF73FBF094988420AD1E1
:101F0000C41301212046FFF737FF2046BDE81040EB
:101F10000021FFF731BF10BD003001400038004004
:101F2000003C00400246002012890A4200D00120F5
:101F30007047090901238B4099B2002A03D0828897
:101F40000A438280704782888A43828070478181F9
:101F50007047704710B58A07120F0F23934021F086
:101F60000304054921440C689C430C600B689040B5
:101F700003430B6010BD0000083801400CB500227F
:101F8000019200922F49086840F4803008604FF4B5
:101F9000A063086800F4003000900198401C019094
:101FA000009810B901989842F3D10868800302D5CF
:101FB0000120009000E000922248009A0830012A97
:101FC0002FD1204A4032136843F0805313601E4AD9
:101FD000136843F48043136002680260026842F4AD
:101FE00000420260026842F4A0520260031F174AD6
:101FF0001A600A6842F080720A600A689201FCD591
:10200000134B40F205621A60026822F0030202607C
:10201000026842F0020202600268C2F38102022AF0
:10202000FAD1026822F4000202600648094A8430AC
:102030000260086840F08060086008680001FCD514
:102040000CBD0000003802400070004008544007FA
:10205000003C0240003000507047000010B50F48AF
:10206000016841F0010101600C4A00210832116051
:1020700002680B4B1A400260031D0A4A1A6002688C
:1020800022F48022026005480C300160FFF776FFE1
:1020900005494FF00060086010BD000000380240A4
:1020A000FFFFF6FE1030002408ED00E00349012098
:1020B00008600821800700F00EB8000044000020EE
:1020C00010B501238B40048C9C430484038C8A400C
:1020D0001343038410BDC94301827047002904D013
:1020E000018841F0010101807047018821F0010160
:1020F00001807047406A7047002A03D082890A43F2
:102100008281704782898A438281704770B5028CD0
:1021100022F480720284028C8388848B24F0700401
:1021200024F003040D88254322F400728E894FF6B3
:10213000FF7404EA062616434A8804EA0222324360
:10214000114EB04202D0114EB04217D122F40066B7
:10215000CA8904EA0222324322F480668A8804EAA9
:102160000222324323F4805323F400530E8A04EAFC
:1021700006161E434B8A04EA031333438380858388
:102180008968C163028470BD000001400004014001
:10219000002101804180818081608181C181018233
:1021A00041827047C16370474162704730B5028811
:1021B000164C174DA0420DD0A8420BD0B0F1804F65
:1021C00008D0144B984205D0134B984202D0134BC1
:1021D000984203D122F070034A881A43104B984268
:1021E00006D0104B984203D022F440730A891A4358
:1021F00002804A68C2620A880285A04201D0A842D1
:1022000001D1897A01860121818230BD000001401F
:10221000000401400004004000080040000C0040A1
:1022200000100040001400404FF0FF3141600021D9
:1022300001800181418081727047FEE72DE9F04FF6
:1022400093B005460C464FF00009CDF82C900027BE
:10225000A0A002F0B1F84FF0010AA5F804A02846AA
:1022600002F088F89FA10DA801F084FA012221460E
:10227000284602F0A5FE0DA801F08BFA0DA802F089
:1022800049F80225A580204602F074F89AA002F0D1
:1022900093F89FA10DA801F06DFA4FF0370B2D2395
:1022A000002221462046CDF800B002F0CEFB0DA85A
:1022B00001F06FFA0DA802F02DF8A580204602F07B
:1022C00059F897A002F078F89AA10DA801F052FAF7
:1022D00001222146204602F024FE0DA801F059FA01
:1022E0000DA802F017F8A580204602F043F894A04C
:1022F00002F062F896A10DA801F03CFA08222146EE
:10230000204602F0DFFD0DA801F043FA0DA802F00F
:1023100001F8A580204602F02DF892A002F04CF8BA
:1023200096A10DA801F026FA08222146204601F0C8
:10233000B3FDC6B20DA801F02CFA0DA801F0EAFF1A
:102340004FF00308A4F80480204602F013F88EA092
:1023500002F032F8300101F025FF02908EA10DA8A5
:1023600001F008FA31462046029A02F04BFA0DA815
:1023700001F00FFA0DA801F0CDFFA4F8048020466B
:1023800001F0F8FF88A002F017F88BA10DA801F06A
:10239000F1F9012518E00BAB0CAA2946204602F002
:1023A000B9FA9DF83000A0F1410133290AD33C2845
:1023B00001D978380C909DF830100A20B1FBF0F06C
:1023C000401CC7B26D1CEDB2B542E4D9029801F0D1
:1023D000CDFC0DA801F0DDF90DA801F09BFFA4F8DC
:1023E0000480204601F0C6FF77A001F0E5FF7BA145
:1023F0000DA801F0BFF978B2FFF768FC072001F0E3
:1024000071FE0DA801F0C5F90DA801F083FFA4F835
:102410000480204601F0AEFF73A001F0CDFF402004
:102420008DF828008DF82400A0788DF825008DF80F
:10243000299074218DF820108DF81C108DF81D0046
:102440008DF821908DF818902D208DF819008DF8B9
:10245000150020788DF814008DF810908DF811B0CB
:102460008DF80DB08DF80C0063A10DA801F082F974
:10247000CDF800A0DDE909210123204602F014FB7C
:10248000CDF800A0DDE907210123204602F00CFB76
:10249000CDF800A0DDE905210123204602F004FB70
:1024A000CDF800A0DDE903210123204602F0FCFA6B
:1024B0000DA801F06EF90DA801F02CFFA4F804801E
:1024C000204601F057FF4FA001F076FF13B0BDE8A2
:1024D000F08F0000312E20536F7572636520696D97
:1024E00061676500765468726573686F6C644973E0
:1024F0006F44617461000000332E20765468726569
:1025000073686F6C6449736F44617461000000000C
:102510007643726F70566572746963616C00000077
:10252000342E207643726F70566572746963616CE5
:102530000000000076536574626F72646572730008
:10254000352E2076536574426F7264657273000095
:102550007652656D6F7665426F72646572426C6F1C
:1025600062730000362E207652656D6F7665426F7D
:1025700072646572426C6F6273000000694C616244
:10258000656C426C6F627300372E20694C61626526
:102590006C426C6F6273000076426C6F62416E61D8
:1025A0006C79736500000000372E2076426C6F62F4
:1025B000416E616C79736500765265636F676E6911
:1025C0007A65546F6E650000382E205265636F6720
:1025D0006E697A6520746F6E6573000076506C6169
:1025E00079546F6E65000000392E20506C6179209F
:1025F000746F6E650000000076447261774C696EFE
:102600006500000031302E2076447261774C696E8F
:102610006500000070B506462DED068B8CB00D46AA
:10262000002004909FED8D0B8DED000B8DA001F02F
:10263000C3FE0124B480304601F09CFE8DA106A8A3
:1026400001F098F82946304602F0F0F906A801F0AA
:10265000A0F806A801F05EFEAC80284601F08AFED4
:1026600086A001F0A9FE88A106A801F083F82946FA
:10267000284602F0D7F906A801F08BF806A801F069
:1026800049FEAC80284601F075FE85A001F094FE5D
:1026900089A106A801F06EF801222946284602F019
:1026A0008FFC06A801F075F806A801F033FE02249D
:1026B000AC80284601F05EFE84A001F07DFE8AA178
:1026C00006A801F057F808222946284602F0FAFB2E
:1026D00006A801F05EF806A801F01CFEAC802846B2
:1026E00001F048FE85A001F067FE8BA106A801F06D
:1026F00041F808222946284602F05EFA06A801F0B1
:1027000048F806A801F006FEAC80284601F032FE2B
:1027100084A001F051FE88A106A801F02BF8082240
:102720002946284601F0B8FBC6B206A801F031F8E8
:1027300006A801F0EFFD0320A880284601F01AFE4C
:1027400080A001F039FE012001F0A0FC022001F080
:102750009DFC032001F09AFC042001F097FC012469
:1027600076E004AB05AA2146284602F0D3F8002300
:1027700002222146284601F08DF8B0EE408AF0EEA4
:10278000608A022300222146284601F083F8B0EE39
:1027900040AAF0EE60AA01231A462146284601F01D
:1027A00079F8B0EE409AF0EE609A53EC1A2B51ECA7
:1027B000180BFDF735FD41EC100B8DED020B53ECC2
:1027C0001A2B51EC180BFDF7CCFD41EC100B53EC20
:1027D000102BFDF7CCFD41EC180B53EC192B51ECF1
:1027E000190BFDF7C4FD9FED5D1B53EC112BFDF79D
:1027F000BEFD53EC182BFDF713FD41EC100B8DEDD6
:10280000000B694602A801F017FA012804D002283B
:1028100006D003281AD110E0012001F04DFC15E08C
:10282000012001F049FC022001F046FC032001F0E8
:1028300043FC042001F040FC08E0012001F03CFCD6
:10284000022001F039FC032001F036FC641CE4B2E4
:10285000B44286D90CB0BDEC068B70BD0000000000
:1028600000000000312E20536F7572636520696D82
:102870006167650076436F7079000000322E207624
:10288000436F70790000000076436F6E747261735D
:102890007453747265746368466173740000000059
:1028A000332E2076436F6E74726173745374726545
:1028B0007463684661737400765468726573686FF8
:1028C0006C6449736F44617461000000342E20769B
:1028D0005468726573686F6C6449736F44617461A6
:1028E000204441524B0000007652656D6F76654280
:1028F0006F72646572426C6F62730000352E2076D1
:1029000052656D6F7665426F72646572426C6F627C
:1029100073204549474854007646696C6C486F6C93
:1029200065730000362E207646696C6C486F6C65C6
:102930007320454947485400694C6162656C426C9C
:102940006F627300372E20694C6162656C426C6F58
:102950006273204549474854000000000000000011
:102960000000104000F10801086001F003BD03B44D
:1029700001984100009850EAC12018BF04204A0D78
:1029800018BF40F0010040F2FF72B2EB515F08BF88
:1029900040F00200012808BF052002B07047000087
:1029A0002DE9F04D2DED040B2DED0E8B94B0DDE9EE
:1029B0002350259CDDF888A025F0004624F000482F
:1029C000BAF1000F14BF0121002101EB4502FE49BD
:1029D00053184A109A422AD8002814BF0123002312
:1029E00003EB44030B44F949994220D858EA00010B
:1029F0009FEDF78B6FD0DFF8E0B35D4503D1BAF1FF
:102A0000000F68D004E0BAF1000F08BF002100D029
:102A1000012101EB450111F5001F08D8002814BF62
:102A20000121002101EB440111F5001F0AD99DEDA0
:102A3000240B53EC102B9DED220B51EC100BFDF7EA
:102A4000EFFB40E00027002DBCBFE449884521DAB8
:102A5000E3498845A8BF02271CDAD8451ADBE149BB
:102A600001EB2851142908DDC1F1340220FA02F1EA
:102A700001FA02F282420DD108E058B9C1F1140204
:102A800028FA02F101FA02F2424503D101F00101F4
:102A9000C1F1020756EA0A019FEDD3AB1CD1002C0D
:102AA0001ADA002D18BF022F01D0012F07D0022003
:102AB00000F05AFE53EC1A2B51EC180B05E10220E2
:102AC00000F052FE7DE041EC100B14B0BDEC0E8B1B
:102AD00004B0BDE8F08D18E09FEDC5BB9FEDC69B2F
:102AE000002877D1BD48804522D105F1804010F5FE
:102AF000801008BFBAF1000F07D05E450ADB002C3A
:102B0000A8BF9DED240BE0DA0DE0B0EE480AF0EE30
:102B1000680ADAE7002C06DA9DED240B51EC100B65
:102B200081F00041CFE7B648784490ED000BCCE748
:102B3000D84553D1002C4EDA2EB1864240D1BAF19D
:102B4000000F2DD047E0BAF1000F19D0022000F09D
:102B50000BFE53EC192B51EC190BFDF708FC41EC63
:102B6000100B8DED020B9DED220B8DED000B10EE89
:102B7000900A039961F31E0003909DED020BA4E7F8
:102B80008DED02BB9DED220B1BEE901A10EE900A0C
:102B90008DED000B61F31E0003909DED020B94E799
:102BA0008DED02AB9DED220B1AEE901A10EE900AFD
:102BB0008DED000B61F31E0003909DED020B84E789
:102BC00009DA9DED220B51EC180B53EC102BFDF79D
:102BD00040FC78E71DE09DED220B76E7B04218DD62
:102BE000B4F1804F0DD0A4F10050B0F1FF5010D1DE
:102BF000002D0EDB9DED220B51EC100B01F06EFD54
:102C000061E79DED220B53EC102B51EC100B00F003
:102C1000E1BC9DED220B51EC100B01F097F841EC5B
:102C2000100BBAF1000F8DED120B34D19FED760B26
:102C3000DEB1A6F1E040B0F17F602CD1002D01DDC6
:102C4000002C0DDA002D01DD002C1FDB002D16DA23
:102C5000002C14DB012F08BF9FED6D0B3FF435AF47
:102C6000B0EE4B0AF0EE6B0A2FE7022F18BF002DD3
:102C70000CD0012F0AD1002DFFF627AF06E0002D62
:102C8000B8BF002C07DA012F3FF41FAFB0EE4A0A9D
:102C9000F0EE6A0A19E7012000EBE5700490384372
:102CA0000CD05D48002580457DDD5C495C48884549
:102CB00013DD86420CDC002C18DB30E0012000F034
:102CC00053FD53EC1A2B51EC1A0BFDF7C2FBFAE63D
:102CD000B34502DC002C09DC21E0B04202DD002C0F
:102CE00004DB1CE05E452DDD002C18DD022000F029
:102CF0003BFD53EC192B51EC190BFDF738FB41EC64
:102D0000100B1BEE900A10EE901A8DED020B8DED5C
:102D100000BB61F31E0003909DED020BD5E602207F
:102D200000F022FD00F000FD10EE901A18EE900A5F
:102D30008DED020B8DED008B61F31E0003909DED78
:102D4000020BC2E69DED220B53EC182B51EC100B3D
:102D5000FDF707FB41EC100B8DED0C0B9FED320BDB
:102D600053EC102B9DED0C0B51EC100BFDF7FFFA03
:102D70009FED2F1B53EC112BFDF7F6FA9DED0C1B6D
:102D800053EC112BFDF7F3FA9FED2B1B53EC112B9A
:102D9000FDF7EAFA9DED0C0B41EC1A0B53EC102BEE
:102DA00051EC100B00E08AE0FDF7E1FA53EC1A2B2E
:102DB000FDF7DDFA9FED220B41EC1B0B53EC102BC2
:102DC0009DED0C0B40E00000FFFF1F00FFFF0F0018
:102DD000000000000000F03F0000F03F0000F07F26
:102DE0000000404301FCFFFF000000000000000065
:102DF000000000000000F07F0000000000000070F4
:102E00003C260000000000000000000000000080E0
:102E1000000000000000F0FF0000E0410000F0436F
:102E2000FFFFEF3F00000000000000000000D03F67
:102E3000555555555555D53F000000000000E03F61
:102E4000000000604715F73F51EC100BFDF78FFABB
:102E500041EC1A0B9FEDFE0B51EC1B0B53EC102BAE
:102E6000FDF785FA41EC1B0B9FEDFB0B53EC102B90
:102E70009DED0C0B51EC100BFDF779FA53EC1B2B6D
:102E8000FDF76FFA41EC1B0B51EC1A0B53EC1B2BAB
:102E9000FDF7C6F941EC100B53EC1A2B8DED080B26
:102EA00008959DED080B51EC100BFDF75AFA53EC09
:102EB0001B2BFDF759FA41EC100B00F0AFB90020C5
:102EC000B6F5801F11DA9FEDE60B53EC102B9DED4C
:102ED000120B51EC100BFDF74AFA41EC100B6FF09E
:102EE000340010EE906A8DED120BDF4900EB265096
:102EF000A0F2FF38C6F3130040F07F6646F040565C
:102F00008842D8BF002409DDD8498142C8BF0124C6
:102F100004DC002408F10108A6F58016D4487844A2
:102F200000EBC40A13969AED000B53EC102B9DEDA9
:102F3000120B51EC100BFDF714FA9AED000B41EC5B
:102F40001B0B53EC102B9DED120B51EC100BFDF7EE
:102F500067F941EC100B51EC180B53EC102BFDF7FB
:102F600078FA41EC1C0B51EC1B0B53EC1C2BFDF7BE
:102F7000FEF941EC1A0BBF488DED0AAB78440A9577
:102F800090ED000B4FF0005040EA660000EB8440EB
:102F90008DED100B00F5002011909AED000B53EC15
:102FA000102B9DED100B51EC100BFDF7DAF99DED98
:102FB000121B53EC112BFDF7D7F941EC100B53EC1E
:102FC000102B9DED0A0B51EC100BFDF7D0F99DED88
:102FD000100B41EC1D0B53EC102B9DED0A0B51EC2B
:102FE000100BFDF7C4F953EC1B2BFDF7BDF953ECA7
:102FF0001D2BFDF7B6F953EC1C2BFDF7B8F941EC8E
:103000001C0B53EC1A2B51EC1A0BFDF7B0F941ECE9
:103010001B0B99480621B0EE4B0AF0EE6B0A784480
:1030200000F006FBB0EE40DAF0EE60DA53EC1B2B5A
:1030300051EC1B0BFDF79BF953EC1D2BFDF797F99A
:103040009DED0A0B41EC1B0B53EC1A2B51EC100BB2
:10305000FDF7E6F853EC1C2BFDF789F953EC1B2B1D
:10306000FDF7DEF89DED0A0B41EC1D0B53EC102B28
:1030700051EC100BFDF77BF941EC1B0B9FED80EB46
:1030800053EC1E2BFDF7CCF853EC1D2BFDF7C8F8C5
:1030900041EC100B53EC1E2B8DED100B10959DED9C
:1030A000100B51EC100BFDF75CF953EC1B2BFDF7EB
:1030B00058F953EC1D2BFDF757F99DED100B41EC22
:1030C0001D0B53EC102B9DED0A0B51EC100BFDF773
:1030D0004EF941EC1B0B53EC1A2B51EC1D0BFDF779
:1030E00046F99DED100B41EC1A0B53EC102B51ECF3
:1030F0001C0BFDF73CF953EC1A2BFDF791F841EC52
:103100001A0B51EC1B0B53EC1A2BFDF789F841EC11
:10311000100B53EC1B2B8DED0A0B0A959DED0A0B42
:1031200051EC100BFDF71DF953EC1A2BFDF71CF9B0
:1031300041EC1A0B9FED540B53EC102B9DED0A0B39
:1031400051EC100BFDF713F941EC1B0B9FED500BED
:1031500051EC1A0B53EC102BFDF709F941EC1A0B4B
:103160009FED4D0B53EC102B9DED0A0B51EC100B0A
:10317000FDF7FDF853EC1A2BFDF752F841EC100B5C
:103180004748784400EBC40090ED001B51EC100B55
:1031900053EC112BFDF744F841EC1A0B4046FDF7B8
:1031A000C7F941EC100B53EC1A2B8DED0C0B51ECC5
:1031B0001B0BFDF735F841EC100B3A48784400EB57
:1031C000C40451EC100B94ED001B53EC112BFDF7D4
:1031D00027F89DED0C1B53EC112BFDF721F841EC6A
:1031E000100B8DED080B08959DED0C0B53EC102B7F
:1031F0009DED080B51EC100BFDF7B3F894ED000BAF
:1032000053EC102BFDF7ADF853EC1B2BFDF7A9F891
:1032100053EC1A2BFDF7A8F841EC100B0498791E1B
:10322000B0EE48BAF0EE68BA084308BF9FED1E8BB7
:103230009DED241B53EC102B8DED001B00959DED97
:10324000240B51EC100BFDF792F841EC1A0B2FE018
:10325000FE822B654715F73F44DF5DF80BAE543E09
:1032600000000000000040438E9803007AB60B0077
:10327000BE210000E8210000EE2000000000000058
:103280000000000000000840000000E009C7EE3F19
:10329000FD033ADC09C7EE3FF5015B14E02F3EBEAB
:1032A0007A1F0000301F0000000000000000F0BF87
:1032B0009DED000B53EC102B9DED240B51EC100BEE
:1032C000FDF74FF89DED081B53EC112BFDF74FF860
:1032D00053EC1A2BFCF7A4FF9DED080B41EC1A0BE5
:1032E00053EC102B9DED000B51EC100BFDF73FF84C
:1032F00041EC100B51EC1A0B8DED0A0B53EC102B1B
:10330000FCF78EFF41EC100BB54910EE904A10EE21
:10331000100A8DED020B8C4235DB611A084318D17F
:103320009DED0A0B53EC102B9DED020B51EC100B95
:10333000FDF717F841EC1C0B9FEDAB0B51EC1A0B92
:1033400053EC102BFCF76CFF53EC1C2BFDF73CF9F6
:1033500033D2022000F008FA53EC192B51EC190B70
:10336000FDF705F841EC100B18EE900A10EE901ADC
:103370008DED020B8DED008B61F31E0003909DED32
:10338000020BFFF7A2BB9A4A24F00041914214D3EA
:103390009849214408437FF4C2AC9DED0A0B53ECDD
:1033A000102B9DED020B51EC100BFCF7DAFF53ECE8
:1033B0001A2BFDF709F97FF6B2AC24F000408E49D4
:1033C0008E4A002601EB20519042D8BF9DED0A0B9A
:1033D0002DDD481C4FF4801121FA00F02044C0F389
:1033E0000A51874AA1F2FF317A4492ED000B854AD7
:1033F0008DED0C0BCA4020EA0202C0F3130040F42A
:103400008010C1F1140120FA01F60D92002CB8BF12
:1034100076429DED0C0B53EC102B9DED0A0B51ECFD
:10342000100BFCF79EFF41EC100B8DED0A0B53ECDB
:10343000102B51EC1A0BFCF7F3FE41EC100B8DED49
:103440000C0B9FED710B0C9553EC102B9DED0C0BA1
:1034500051EC100BFCF78BFF41EC190B9FED6C0B43
:1034600053EC102B9DED0C0B51EC100BFCF77FFF78
:103470009DED0A0B41EC1C0B53EC102B9DED0C0B3E
:1034800051EC100BFCF76DFF53EC1A2BFCF76CFFA3
:103490009FED611B53EC112BFCF769FF53EC1C2BC8
:1034A000FCF7BEFE41EC1A0B51EC190B53EC1A2B36
:1034B000FCF7B6FE41EC100B53EC192B8DED020B13
:1034C000FCF74FFF53EC1A2BFCF74EFF9DED020B60
:1034D00041EC190B53EC102B51EC100BFCF747FF90
:1034E00041EC100B4E488DED0C0B0521784400F09B
:1034F0009FF89DED0C1B51EC100B53EC112BFCF7BE
:1035000036FF9DED021B53EC112BFCF72DFF41EC18
:10351000100B53EC192B8DED080B9DED020B51ECAC
:10352000100BFCF724FF53EC192BFCF779FE9FEDF1
:103530003E0B41EC1A0B53EC102B9DED080B51EC9C
:10354000100BFCF70EFF9DED080B41EC190B53EC33
:10355000102B9DED020B51EC100BFCF708FF53EC08
:10356000192BFCF776FF53EC1A2BFCF7FAFE9DEDB6
:10357000021B53EC112BFCF7F4FE53EC1B2BFCF756
:10358000F3FE41EC100B10EE900A8DED020B00EBF8
:10359000065001150029C4BF03909DED020B15DCF8
:1035A000324651EC100BFDF7B3F8FFF7E0F90428B1
:1035B00008BF00F0B9F832469DED020B51EC100B3C
:1035C000FDF7A6F841EC100B8DED020B53EC102B20
:1035D00051EC180BFCF7CBFEFFF775BA00000000AA
:1035E0000000904000000000FE822B654715973CCC
:1035F00000CC904000346F3F01FCFFFF0000E03F33
:103600007C1D0000FFFF0F0000000000432EE63F7E
:10361000396CA80C615C20BEEF39FAFE422EE63F01
:10362000501C0000000000000000000000000040EE
:1036300070B504462DED028B4D1E00EBC500B0EEBB
:10364000408AF0EE608A90ED000B35F0060017D04E
:1036500053EC182B51EC100BFCF789FE41EC100BCE
:103660006D1E04EBC50090ED001B51EC100B53ECEC
:10367000112BFCF7D5FD41EC100B35F00600E7D11E
:10368000022D36D0042D1CD0062D1CBFBDEC028BA4
:1036900070BD53EC182B51EC100BFCF768FE94ED49
:1036A0000A1B53EC112BFCF7BBFD53EC182BFCF75A
:1036B0005EFE94ED080B53EC102BFCF7B1FD41ECD2
:1036C000100B53EC182B51EC100BFCF750FE94ED43
:1036D000060B53EC102BFCF7A3FD53EC182BFCF757
:1036E00046FE94ED041B53EC112BFCF799FD41ECC5
:1036F000100B53EC182B51EC100BFCF738FE94ED2B
:10370000020B53EC102BFCF78BFD53EC182BFCF742
:103710002EFE94ED000B53EC102BFCF781FDBDEC5D
:10372000028B41EC100B70BD9FED050B10B553ECF7
:10373000102B51EC100BFCF71AFE41EC100B10BDD6
:10374000000000000000001002E008C8121F08C1BD
:10375000002AFAD170477047002001E001C1121F12
:10376000002AFBD170470000014908607047000043
:10377000A400002010B504460F2204F10800FCF755
:1037800043FD0020E0754FF08040FEF7B3FC206061
:1037900010BD10B504464FF08040FEF7ABFC6060F2
:1037A00010BD000070B500F02BF800F039FE00F0FD
:1037B0000FF900F051F8114C002020701C2000F08F
:1037C00079FE01257F2800D025701D2000F072FEB3
:1037D000A22800D02570207801280AD0062000F009
:1037E00055FC2021142000F013FFBDE8704000F0CC
:1037F0001FBABDE87040062000F05EBC000000204B
:103800007CB501210820FEF78DFA4FF4406000904E
:1038100001208DF804008DF8050000248DF8064085
:103820008DF807400B4D69462846FEF727F8291505
:103830002846FEF778F8E9142846FEF774F8802148
:1038400000918DF804408DF8074069462846FEF740
:1038500015F87CBD000C02402DE9F04141F288349E
:1038600025460A4F4FF4806631463846FEF75DF82C
:1038700000E06D1E002DFCD131463846FEF753F8AE
:10388000641E002CFCD1BDE8F0810000000C024059
:1038900000F0A6B92DE9F04707462DED068B4FF055
:1038A000000082B099465FEA02088A468DF800005F
:1038B000054604469FED420BB0EE408AF0EE608A6A
:1038C00003D0B8F1010F04D006E0B9F1010F0CD01C
:1038D00002E0B9F1000F08D058EA090003D0B88817
:1038E000022807D008E09FED380B02B0BDEC068B34
:1038F000BDE8F0874FF0010A6B4601AA51463846F1
:1039000001F008F84AE0002644E000BF05EB45005E
:1039100000EBC50007EB00103044017A514538D167
:10392000641C4846FCF704FE41EC190B9DF80000AE
:10393000281AFCF7FDFD41EC100BB0EE491AF0EE31
:10394000691AFFF72DF8B0EE401AF0EE601AB0EEEB
:10395000419AF0EE619A4046FCF7EAFD41EC1A0B01
:103960009DF80400301AFCF7E3FD41EC100BB0EEBB
:103970004A1AF0EE6A1AFFF713F853EC192B51ECC0
:10398000100BFCF7F4FC53EC182BFCF749FC41EC52
:10399000180B761C3888B042B8D16D1C7888A842C4
:1039A000B1D104FB04F0FCF7D4FD41EC100B51EC59
:1039B000180B53EC102BFCF74CFD41EC100B94E76B
:1039C0000000000000000000000000000000F03FC8
:1039D000F0B595B001210846FEF7A4F901210220B7
:1039E000FEF7A0F901210420FEF79CF90121102027
:1039F000FEF798F9724F0D2204213846FDF77CFF3F
:103A00000D2206213846FDF777FF0D220A213846A0
:103A1000FDF772FF4FF48A60139002258DF8505025
:103A200000248DF8534003268DF851608DF85240E4
:103A300013A93846FDF722FF624F0D2207213846B1
:103A4000FDF75AFF0D2206213846FDF755FFC0202D
:103A500013908DF850508DF853408DF851608DF8CB
:103A6000524013A93846FDF709FF574F0D22062192
:103A70003846FDF741FF0D2208213846FDF73CFF8F
:103A80000D2209213846FDF737FF4FF4507013908F
:103A90008DF850508DF853408DF851608DF852409C
:103AA00013A93846FDF7EAFE484F0D220421384697
:103AB000FDF722FF0D2205213846FDF71DFF0D22DF
:103AC00006213846FDF718FF702013908DF85050EE
:103AD0008DF853408DF851608DF8524013A9384647
:103AE000FDF7CCFE01210846FEF72AF9ADF83C406F
:103AF000ADF83E402020ADF840008020ADF84200F7
:103B0000ADF84440ADF84640ADF848400FA8FDF789
:103B10004BFB01218805FEF705F92D4E3046FDF7D8
:103B200087FB6846FDF7A8FC280600900394401424
:103B300009900A94274801900594E80207900E9492
:103B4000029480100690050108950D946946304650
:103B5000FDF760FC002211463046FDF70BFC012109
:103B60003046FDF7FBFB00F053FB1B4C206000F0E0
:103B70004FFB60604FF4C6513046FDF77BFC216877
:103B8000002208313046FDF76FFC61686A01083198
:103B90003046FDF769FC0220FDF7CEFA0120FDF763
:103BA000CBFA01210220FDF7EFFA0C480560012055
:103BB000FDF7C8FA01213046FDF72EFB15B0F0BD28
:103BC00000000240000402400008024000100240D1
:103BD00028640240280005500400002008E100E0AD
:103BE00070B50546104E3046FDF7D8FB01000F4872
:103BF00008D0046829680160002208313046FDF7CA
:103C000033FC08E04468296841604FF40022083121
:103C10003046FDF729FC2C6090206080B020208089
:103C20000020A080204670BD2864024004000020CF
:103C30000120FDF771BA000070B50D462DED028B25
:103C400004469FED348B90ED000B53EC182B51EC98
:103C5000100BFCF7A5FC19D294ED000B9FED2F1B68
:103C600051EC100B53EC112BFCF7AEFC0ED295ED82
:103C7000000B9FED2C1B51EC100B53EC112BFCF7A0
:103C80008FFC03D20120BDEC028B70BD94ED000BC4
:103C90009FED261B51EC100B53EC112BFCF780FC15
:103CA00015D294ED000B53EC182B51EC100BFCF7D4
:103CB0008BFC0CD295ED000B9FED1E1B51EC100BF5
:103CC00053EC112BFCF76CFC01D20220DBE794EDE6
:103CD000000B9FED1A1B51EC100B53EC112BFCF752
:103CE0005FFC15D294ED000B53EC182B51EC100B2C
:103CF000FCF76AFC0CD295ED000B9FED121B51EC0A
:103D0000100B53EC112BFCF75FFC01D20320BAE738
:103D10000020B8E723DBF97E6ABCC43FD7A3703D1F
:103D20000AD7C33FF168E388B5F8E43EC3F5285CE1
:103D30008FC2C53F8DEDB5A0F7C6B03E00000000B4
:103D40000000D03FFCA9F1D24D62503F41EC100B76
:103D500082B010EE900A8DED000B20F00040019033
:103D60009DED000B02B051EC100B704710B5002810
:103D700021D0114B001F0022196803E0814203D8B3
:103D80000A4649680029F9D152B11368841A9C4245
:103D900004D1006818441060104602E0506000E052
:103DA000186039B102680B1A934203D10B681A44A8
:103DB00002604968416010BD9C0000207FB5012170
:103DC0000220FDF7AFFF01211020FDF7ABFF01211D
:103DD0008803FDF7DFFF1420009001258DF80450C3
:103DE00000248DF806408DF807408DF80550284EC8
:103DF00069463046FDF742FD04213046FDF795FD4A
:103E0000232100918DF804408DF807406946304623
:103E1000FDF734FD4FF47F4000908DF804508DF88D
:103E200006408DF807408DF8055069461948FDF7A2
:103E300025FD00210120FEF78DF801210846FEF73F
:103E400089F805210120FEF785F8032002908DF8FE
:103E50000C400C208DF80D008DF80E5002A8FDF7D7
:103E6000D3FC202002908DF80C4010208DF80D001E
:103E70008DF80E5002A8FDF7C7FC1720FDF7CEFE07
:103E80000620FDF7CBFE0720FDF7C8FE7FBD000032
:103E900000040240001002402DE9F0439146012544
:103EA0000C46FF232A4601F063F800BF4FF0000CD8
:103EB00063464FE0002148E003EB430000EBC30002
:103EC00004EB00104218177AAFB3567A384616B191
:103ED000864200D23046D67916B1864200D23046AC
:103EE00092F8B86016B1864200D2304612F8A86C3B
:103EF00016B1864200D23046B9F1080F17D192F8B8
:103F0000B96016B1864200D2304692F8B780B8F157
:103F1000000F02D0804500D2404616B1864200D242
:103F2000304612F8A76C16B1864200D2304687425E
:103F300002D9107205E006E0FF2F04D115726D1C46
:103F4000EDB24FF0010C491C89B220888842B3D1F0
:103F50005B1C9BB260889842ACD1BCF1010FA5D02C
:103F600000252F461CE007EB470000EBC7000026AA
:103F700004EB00180FE000BF08EB0600027A42B124
:103F8000AA4206D96D1CEDB221462B46084600F028
:103F9000EFFF761CB6B22088B042EDD17F1CBFB2D5
:103FA0006088B842DFD12846BDE8F083F0B5054609
:103FB00002EB420404EBC20405EB0414059F00204D
:103FC0000C4419B1E6799E4200D1012022B114F8C7
:103FD000A86C9E4200D1401C6E88964204D994F889
:103FE000B8C09C4500D1401C2D888D4204D994F85E
:103FF00009C09C4500D1401C082F20D1964206D90B
:104000008D4204D994F8B9709F4200D1401C964269
:1040100005D921B194F8B7609E4200D1401C002A16
:104020000DD08D4204D914F8A72C9A4200D1401C1F
:10403000002904D014F8A91C994200D1401CF0BDFD
:104040000F48016841F00A0101600E48016821F043
:104050007F410160016841F0AA41016009484FF4C5
:104060007041183001800848026822F07F420260E7
:10407000026842F0AA42026003481A300180704789
:104080003038024000040240000C0240421E012170
:10409000032A04D80B308140054801807047421F35
:1040A000032AFBD8C01D81400248018070470000F0
:1040B000180402401A0C0240421E0121032A04D8AF
:1040C0000B308140054801807047421F032AFBD80E
:1040D000C01D814002480180704700001A04024060
:1040E000180C0240411E0122032906D80B30084952
:1040F0000B68824053400B607047411F0329FBD877
:10410000C01D04490B68824053400B60704700009B
:1041100014040240140C024088B01F48016841F4A6
:1041200070010160FFF78CFF00F084F8FFF73AFBA5
:1041300000F00CFB00F098F8FDF7B2FD00F068F815
:10414000079000F065F804460520FFF7CBFF0A2032
:1041500000F046FB00F038FB00F0CEF80FA101A8FC
:10416000FFF708FB00F088F818B1079800F08EF808
:1041700005E007A8FFF78CFB079800F0C3FE214677
:10418000079800F03FF900F035FB01A8FFF701FBAD
:1041900001A800F0BFF8D7E788ED00E04672616D36
:1041A00065000000F0B50B30154D20F0070100242C
:1041B000144A0FE003688B420BD38B4205D95E1A79
:1041C00043184768C3E9006700E04368136002C012
:1041D00004E0021D10680028ECD12046002802D11E
:1041E000286808B10020F0BD064A07481060074A59
:1041F000121A22F00702C0E9002401202860D7E744
:10420000A00000209C000020EC8D0120E88F012000
:1042100007494868002809D082684A609022428095
:10422000B02202800A78521E0A7070470020704740
:104230000C00002030B50A4A04241470002050609D
:10424000084B09E040F66141414303EBC101556869
:104250008D605160401CC0B2A042F3D330BD00005D
:104260000C000020A800002010B5FFF7A7FDBDE856
:10427000104000F027B8000003480079032801D05F
:1042800000207047012070471400002070B50546DB
:104290000B4CA078002812D0217A0029FCD10121F2
:1042A0002172074A532009321070A1720220FDF7D3
:1042B00093FA00206073E561607B0028FCD070BD3C
:1042C0001400002070B50B4C00256570A570E572D8
:1042D000258225736582012000F08EF86571E571F5
:1042E000A57125722571E570BDE870400820FFF7C3
:1042F000CDBE000014000020054901200870C878D8
:104300000871012801D0032801D10020C87070472E
:104310001400002010B50B4A1379002B11D09379AB
:10432000002BFCD101239371074B43221A700146E5
:104330001822581CFBF744FFBDE810400220FDF78F
:104340004BBA10BD14000020C88C012008488178A9
:1043500000290CD0017A0029FCD101210172044B03
:10436000332209331A7081720220FDF735BA704783
:104370001400002010B50F4C2179002914D0617869
:104380002278914210D161790029FCD1012161711B
:10439000084942230E310B704A7060610220FDF71C
:1043A0001BFA60790028FCD12078FE2801D2401C3D
:1043B000207010BD1400002010B50D4A1379002B99
:1043C00014D0D379002BFCD10123D371094C49229D
:1043D00022700146C822601CFBF716FF002084F8FB
:1043E000C800BDE810400220FDF7F6B910BD00007E
:1043F00014000020E18C0120014908707047000082
:1044000034000020054A1378032B01D300231370D6
:10441000024B12781B1D53F8222010473400002055
:1044200030B587B001210220FDF77CFC4FF44060DD
:10443000059002208DF818008DF8190001208DF8E4
:104440001A0000248DF81B40174D05A92846FDF7DA
:1044500015FA04220A212846FDF74EFA04220B2100
:104460002846FDF749FA01218805FDF777FC0F4D35
:104470002846FDF78BFAADF808404BF6FF71ADF812
:104480000A102915ADF80E100901ADF810100849F1
:10449000019101A92846FDF7DDFA01212846FDF723
:1044A00068FA07B030BD0000000402400058004028
:1044B000A08601002DE9F047054642F210784446F7
:1044C0004FF400374E4E01E0641E0DD3394630469E
:1044D000FDF7A6FA0028F7D101213046FDF788FA4A
:1044E0004446DFF8209104E0FF20BDE8F087641E19
:1044F0000FD349463046FDF72DFA0028F7D0344651
:104500000022C0212046FDF704FB4646DFF8F8A054
:1045100003E0FF20E9E7761E0DD351462046FDF764
:1045200019FA0028F7D029462046FDF7FBFA454640
:10453000354EB61C03E0FF20D7E76D1E0BD3314686
:104540002046FDF707FA0028F7D001212046FDF7A5
:104550005BFA464603E0FF20C7E7761E0CD33946D8
:104560002046FDF75DFA0028F7D1254601212846AF
:10457000FDF73EFA444603E0FF20B6E7641E0FD382
:1045800049462846FDF7E6F90028F7D00122C02168
:104590002846FDF7BEFA464634461A4F7F1C03E014
:1045A000FF20A2E7641E11D339462846FDF7D2F951
:1045B0000028F7D02C4600212046FDF7BFF9012145
:1045C0002046FDF721FA0F4D3F3503E0FF208CE731
:1045D000761E13D329462046FDF7BCF90028F7D0F4
:1045E0002046FDF793FA054601212046FDF7A6F97E
:1045F00006492046FDF7BAF9284676E7FF2074E71A
:104600000058004001000300820007000004001071
:104610002DE9F0478246884641F2883442F210790B
:104620004D464FF400372A4E01E06D1E4ED33946F9
:104630003046FDF7F5F90028F7D101213046FDF7A6
:10464000D7F94F46234D01E07F1E3FD32946304620
:10465000FDF780F90028F7D035460022C021284612
:10466000FDF757FA4E461C4F01E0761E2ED3394611
:104670002846FDF76FF90028F7D051462846FDF788
:1046800051FA4E46144FBF1E01E0761E1ED3394626
:104690002846FDF75FF90028F7D02E464146304600
:1046A000FDF740FA4D460C4FBF1C01E06D1E0DD3C7
:1046B00039463046FDF74EF90028F7D00121304643
:1046C000FDF7A2F900E0641E002CFCD1BDE8F087E4
:1046D00000580040010003008200070000B52DEDE6
:1046E000048B83B041EC180BFCF73CF841EC190B40
:1046F00019EE100A19EE901A8DED009B002818BFD4
:104700000120084320F00040C0F17F6000F1E0404C
:10471000C00F14D018EE101A18EE900A8DED008B11
:10472000002918BF0121084320F00040C0F17F603C
:1047300000F1E040C00F04BF0120FFF715F851EC75
:10474000190B03B0BDEC048B00BD000010B588B0A0
:1047500001210846FDF702FB6846FDF765FD4FF0B5
:10476000804469462046FDF721FD01212046FDF7E2
:10477000B5FC00212046FDF717FD03A8FDF708FD55
:104780000021ADF80C100E49059103A92046FDF754
:10479000BDFC012208212046FDF792FC082120469D
:1047A000FDF799FC012208212046FDF7A5FC0548EC
:1047B000A11001600A2000F013F808B010BD00003D
:1047C00000E1F50500E100E010B500214FF0804068
:1047D000FDF7EAFC01490020086010BD44000020FC
:1047E0000349B1FBF0F14FF08040FDF7DBBC000066
:1047F00000BD0105024801680029FCD07047000097
:10480000440000202DE9F74F002682B00746B3464A
:10481000B246B146019666E00498002100EB06100E
:104820009FED340B8180804680ED020B0D464CE0FD
:10483000002445E005EB450000EBC50007EB001048
:104840002044017A701C814238D1B8F80400401C21
:10485000A8F804000198844200D20194554500D282
:10486000AA465C4500D9A3464D4500D9A946042077
:10487000009000232A4621463846FFF797FB01287F
:1048800004D0022807D0032818D109E098ED020BC4
:104890009FED1A1B08E098ED020B9FED1A1B03E039
:1048A00098ED020B9FED191B51EC100B53EC112BE3
:1048B000FBF7B6FC41EC100B88ED020B641CA4B2B4
:1048C0003888A042B6D16D1CADB27888A842AFD16D
:1048D0000199761CABEB0100A8F80000A9EB0A00D7
:1048E000A8F80200B6B20398864295D105B0BDE89B
:1048F000F08F000000000000000000000000000039
:104900000000F03F1B0DE02D90A0F63F17D9CEF729
:1049100053E301402DE9F04F9E4600238A4693461B
:1049200019461D461C46478815E003EB430606EB77
:10493000C30600EB06190022068809E009EB020C09
:104940009CF80880D04502D1491C15441C44521CD7
:104950009642F3D15B1C9F42E7D11DB111B1B5FB6B
:10496000F1F000E000208BF800001CB111B1B4FBA5
:10497000F1F000E000208EF80000BDE8F08F0000AC
:10498000F0B500EE102AF6EE000A0026B8EE400A56
:10499000FF2500F1080446F2073C70EE200A274686
:1049A0000831844407E02078A84200D20546B0428E
:1049B00000D90646641C6445F5D9B54201D29A4235
:1049C00002D39FED170A28E000EE103AB8EE401A25
:1049D00000EE102AB8EE400A31EE401A00EE106ADE
:1049E000F8EE401A00EE105AB8EE400A71EEC01A06
:1049F00081EE210A11E000BF17F8010B401B01EE08
:104A0000100AF8EE411AB0EE601A01EE801ABCEE00
:104A1000C11A11EE100A01F8010B6745ECD9F0BD7F
:104A200000007F43FF230022FFF7AABF00F1080226
:104A300046F207330831184404E000BF12F8013B86
:104A400001F8013B8242F9D970472DE9F043002576
:104A5000DDF81C9022E005EB450606EBC50600EBF1
:104A60000617002401EB061612E09D420AD34D45BD
:104A700008D807EB040C06EB04089CF808C088F87B
:104A800008C003E006EB040C8CF80820641CE4B2B8
:104A9000B0F800C0A445E8D16D1CEDB24488AC422A
:104AA000D9D1BDE8F08300002DE9F04F87B08146F1
:104AB000D5B2109CC8B204952D1A01D5C5F10005D8
:104AC000C2F30722C1F307210392521A00D55242C2
:104AD000049E00924FF0FF32B04201D2012600E066
:104AE00016460696039EB14200D2012205924BB1B2
:104AF0005B1E03EBD3725210D6B2009A954203DDCF
:104B00002A4602E00022F7E7524202EBD27253102B
:104B100049E000BF01EB410202EBC10709EB0712BC
:104B2000CDE901320244147272422AE0029F00EB86
:104B3000020E7744A0EB020B3C72029F5F443C7272
:104B40008F1807EB470C0CEBC70C09EB0C1808EBA4
:104B500000073C728F1A07EB470C0CEBC70C09EBF4
:104B60000C1A0AEB0007521C3C7208EB0E073C7251
:104B700008EB0B073C720AEB0E073C720AEB0B07C3
:104B80003C72D2B2B242D1D9019A6F42BA4203DD2D
:104B9000009A9B1A069A1044DDE90027974202DA30
:104BA000059A2B441144049A8242B3D1039A8A4253
:104BB000B0D107B0BDE8F08F2DE9F0410E4601F10C
:104BC000080546F20731471800F108049046002115
:104BD000304600F039F842460021304600F06AF8CD
:104BE0000121002209E0287810B1072802D002E054
:104BF000297000E02A70641C6D1CBC42F3D9BDE82A
:104C0000F081000070B5002400F1080346F207357A
:104C1000284425464FF48076C2F8004021F814500D
:104C2000641CA4B2B442F9D10AE01D7831F81540F1
:104C3000641C21F81540146813F8015B2C441460BF
:104C40008342F2D970BD000070B50023072213E043
:104C5000C418257A8D4200D12272448804EB4405A1
:104C600005EBC40400EB04141C4414F8A85C8D424A
:104C700001D104F8A82C5B1C04889C42E8D10023D5
:104C800013E000BF03EB430404EBC30500EB051482
:104C9000267A8E4200D12272048802EB0515044464
:104CA000665D8E4200D162555B1C44889C42E9D10E
:104CB00070BD00002DE9FF4F92460E464FEA0004FA
:104CC000012520884FF0000B401E87B26088A8465F
:104CD000401E70E008EB480101EBC80004EB001037
:104CE000029028440190007AB0420DD10723424639
:104CF00029462046CDF800A0FFF758F920B10199C8
:104D000007204FF0010B0872029838440190007A96
:104D1000B0420DD10723424639462046CDF800A0C7
:104D2000FFF744F920B1019907204FF0010B0872F9
:104D300009EB490101EBC90004EB00100290284483
:104D40000190007AB0420DD107234A4629462046F9
:104D5000CDF800A0FFF72AF920B1019907204FF004
:104D6000010B0872029838440190007AB0420DD1CC
:104D700007234A4639462046CDF800A0FFF716F92A
:104D800020B1019807214FF0010B01726088404566
:104D900002D0B9F1000F08D1401E6D1C7F1E4FF0EC
:104DA00001081FFA80F9ADB2BFB208F101001FFA85
:104DB00080F8A9F101001FFA80F9BD428AD9208844
:104DC0000125401E87B26088A846401E1FFA80F960
:104DD0006FE000BF00EB400101EBC80004EB0010E6
:104DE000029028440190007AB0420DD10723424638
:104DF00029462046CDF800A0FFF7D8F820B1019849
:104E000007214FF0010B017209EB490101EBC900C9
:104E100004EB0010019028440390007AB0420DD1B9
:104E200007234A4629462046CDF800A0FFF7BEF8E2
:104E300020B1039907204FF0010B08720298384403
:104E40000290007AB0420DD10723424639462046EF
:104E5000CDF800A0FFF7AAF820B1029907204FF083
:104E6000010B0872019838440190007AB0420DD1CC
:104E700007234A4639462046CDF800A0FFF796F8AA
:104E800020B1019907204FF0010B08722088A84239
:104E900000D057B90125401E87B208F101001FFA62
:104EA00080F8A9F101001FFA80F96D1C7F1EADB2D8
:104EB000BFB24046C8458DD9BBF1010F3FF400AFEA
:104EC000BDE8FF8F2DE9F0410E4601F1080546F2DD
:104ED0000731471800F10804904601213046FFF7DA
:104EE000B3FE424601213046FFF7E4FE002005E014
:104EF0002978072900D12870641C6D1CBC42F7D9A1
:104F0000BDE8F08100F1080146F25622104405E0A8
:104F100002780B7800F8013901F8012B8842F7D1AB
:104F2000704770B500230CE0CC182272448804EB63
:104F3000440505EBC40401EB04141C445B1C04F899
:104F4000A82C04889C42EFD1002307250CE003EB3A
:104F5000430404EBC30401EB041605EB04143272A2
:104F600006885B1C0E44325544889C42EFD170BDCC
:104F700030B546F2073500F108040831054406E073
:104F80002078904200D1184601F8010B641CAC4215
:104F9000F6D930BD30B500F1080446F207350831C6
:104FA00028440AE02578954203D39D4201D8012583
:104FB00000E0002501F8015B641C8442F2D930BD99
:104FC0002DE9F74FADF5027D8B4692464FF4007107
:104FD0006846FBF70EF9012580AA69468298FFF71B
:104FE00011FE6422E8464FF48079002006462C46E4
:104FF00033461D460146CC46914205D238F8117021
:1050000001FB07003B4405E004D938F8117001FBAF
:1050100007553E4401F101016145EDD118B113B1CD
:10502000B0FBF3F100E000211DB116B1B5FBF6F0C5
:1050300000E0002008444008FBF78BFA9FED0D1BB1
:1050400053EC112BFBF7ECF8FBF790FAC5B22A46AC
:10505000A542CAD1BAF1010F08D0FF235946829860
:10506000FFF798FF0DF5057DBDE8F08F2B46002278
:10507000F4E70000000000000000E03F0000000036
:105080000000000000000000000000000000000020
:105090000000000000000000000000000000000010
:1050A0000000000000000000000000000000000000
:1050B00000000000000000000000000000000000F0
:1050C00000000000000000000000000000000000E0
:1050D00000000000000000000000000000000000D0
:1050E000000000000000F03F000000000000F83F5A
:1050F00000000000000000000000004003B8E23F94
:10510000000000000000000006D0CF43EBFD4C3E45
:10511000033333333333E33FFFAB6FDBB66DDB3F3A
:105120004D268F515555D53F01411DA96074D13F82
:1051300065DBC9934A86CD3FEF4E454A287ECA3F7C
:105140003E5555555555C53F93BDBE166CC166BFFE
:105150002CDE25AF6A56113FF16BD2C541BDBBBEF7
:10516000D0A4BE726937663E000000000000000057
:105170009051000800000020A800000048370008F7
:1051800038520008A800002040930100583700085A
:10519000010000000000000000000000000000000E
:1051A00000000000000000000000000000000000FF
:1051B00000000000000000000000000000000000EF
:1051C0000000000000000000652900083D220008E2
:1051D0001526000800000000FFFF0000000000008E
:1051E000FFFF0000FFFF000000C0120002000000EF
:1051F00000002000B86002400C3C004000000000AD
:105200002F000000000000280000002400004020C3
:10521000000000220000002100000000000000004B
:10522000010203040102030406070809000000004C
:08523000000000000000000076
:040000050800018965
:00000001FF
